:020000000828CE
:1000100003138312860185010313831600308500C4
:10002000FF30860003178312891403178316880193
:100030008901031383121C2828202008031926286D
:100040005A20A1006520013085061C2805101C28B7
:10005000861F2B284028061F2E284328861E31285D
:100060004628061E34284928861D37284C28061D98
:100070003A284F28861C3D285228061C5828552807
:100080000830A00008000730A00008000630A000DB
:1000900008000530A00008000430A000080003306C
:1000A000A00008000230A00008000130A0000800F5
:1000B000A0010800200882070034EE34D434BD3497
:1000C000B2349F348E347E3477340430A200A20BD5
:0800D0006728A10B6528080058
:04400E00F120FF3F5F
:00000001FF
