:020000000828CE
:1000100003138312850186018701031383168B0165
:100020008701F030860081130030850089140317A2
:100030008316880189011C2828202008A01B262857
:10004000E820A100FA20013085061C2805101C2894
:10005000A301A40103138316F73086000313831250
:10006000061E2317861E2414061FA317861FA31619
:1000700003138316FB30860003138312061EA41796
:10008000861E2314061FA314861F2316031383162C
:10009000FD30860003138312061E2416861EA41646
:1000A000061F2417861FA31503138316FE30860030
:1000B00003138312061EA414861E2415061FA415FE
:1000C000861F23156328A31E6628A228A31F69285C
:1000D0009828241C6C28E328231F6F289D28231EA2
:1000E0007228A728A31C7528B628231C7828BB28AB
:1000F000A41F7B28C028A31D7E28AC28241F81288C
:10010000C528A41E8428CA28241E8728CF28231D7A
:100110008A28B128A41D8D28D428241D9028D928E8
:10012000A41C9328DE288030A0002430870008001B
:100130000E30A0002330870008000C30A0002A30C9
:10014000870008000F30A0004430870008000B3003
:10015000A0004330870008000730A000423087002D
:1001600008000330A0004130870008000A30A000DA
:100170003930870008000930A000383087000800B7
:100180000830A0003730870008000630A000363065
:10019000870008000530A0003530870008000430D3
:1001A000A0003430870008000230A0003330870000
:1001B00008000130A0003230870008000030A000A5
:1001C0003130870008000D30A00030308700080073
:1001D00020088207EE34D434BD34B2349F348E34D8
:1001E0007E3477346A345E3459344F3447343F3484
:1001F0003B3435340430A200A20BFC28A10BFA28B2
:020200000800F4
:04400E00F120FF3F5F
:00000001FF
