:020000000828CE
:1000100003138312850186018701031383168B0165
:100020008701F030860081130030850089140317A2
:100030008316880189011C2828202008A01B262857
:10004000C720A100D920013085061C2805101C28D6
:10005000A301A40103138316F73086000313831250
:10006000861F33288128061F36287728861E3928C0
:10007000C228061E3C287C2803138316FB3086000A
:1000800003138312861F45288628061F48289528B3
:10009000861E4B289A28061E4E289F280313831677
:1000A000FD30860003138312861F57288B28061FF6
:1000B0005A28A428861E5D28A928061E6028AE2876
:1000C00003138316FE30860003138312861F6928EC
:1000D0009028061F6C28B328861E6F28B828061E95
:1000E0007228BD288030A0002430870008000E3020
:1000F000A0002330870008000C30A0002A308700C1
:1001000008000F30A0004430870008000B30A0002A
:100110004330870008000730A00042308700080005
:100120000330A0004130870008000A30A0003930B9
:10013000870008000930A000383087000800083028
:10014000A0003730870008000630A0003630870056
:1001500008000530A0003530870008000430A000FA
:100160003430870008000230A000333087000800D8
:100170000130A0003230870008000030A00031308C
:10018000870008000D30A0003030870008002008EC
:100190008207EE34D434BD34B2349F348E347E348E
:1001A00077346A345E3459344F3447343F343B3407
:1001B00035340430A200A20BDB28A10BD92808009B
:04400E00F120FF3F5F
:00000001FF
